:1000000001308A00C2290000D81E2000A02C3D101B
:10001000000120102010A0294121492A2010201081
:10002000000120102010A024CC22D2242010201067
:10003000000120102010A023452949102010200085
:1000400020102010A029C1232010201020002010F3
:100050002010A0294F262010201020002010201052
:10006000492645294910D320471020102000201090
:100070002010C722D224A0294F26201020100001D2
:1000800020102010492645294910D3274C10201054
:10009000200020102010C722D224A029C123201024
:1000A00020100000323084008313000803196528F3
:1000B0000630F800F701F70B5B28F80B5A287B3065
:1000C000F700F70B6128800B58280800371E6D28B1
:1000D00083160610831206147128831606108312E5
:1000E0000610B71E782883168610831286147C2883
:1000F0008316861083128610371F832883160611F5
:100100008312061587288316061183120611B71F5E
:100110008E288316861183128615922883168611DF
:100120008312861183160612831206165230F700C8
:10013000F70B98289B2800008316061283120612DC
:10014000080083168612831286123408B50035081B
:10015000B7006620B50EF030B5053508B70066204B
:1001600008008316861283128612831606128312E3
:100170000612FA30B20052202830B7006620013053
:10018000B20052202830B400A1200130B200522029
:100190002830B400A1200130B20052202830B40031
:1001A000A1200C30B400A1200130B400A1203230D5
:1001B000B20052208A110A12D329F801F901F7017D
:1001C000FA013708031DE728360803190129103002
:1001D000B8000310B40DB50DF70DFA0D37087A020B
:1001E000031DF42836087702031CFD283608F702A1
:1001F000031CFA033708FA020314F80DF90DB80BC3
:10020000E92808002108B5002008B4000330B70031
:10021000E830B600DD207808B0007908B100210888
:10022000B5002008B400B7016430B600DD207908BD
:10023000B3007808B2007908B5007808B400B701B7
:100240000A30B600DD207708AE007A08AF0021083A
:10025000B5002008B400B7010A30B600DD207908E7
:10026000B3007808B2007908B5007808B400B70187
:100270000A30B600DD207708AC007A08AD0021080E
:10028000B5002008B400B7010A30B600DD207708B9
:10029000AA007A08AB00080080303207B300B4002F
:1002A000A1208A110A12172A831686128312861633
:1002B0003508B6003608B7006620B60EF030B60531
:1002C0003608B700662008000B08B2008B138316AF
:1002D00003178C170C140000000083120313B21BC9
:1002E0008B1703170C087F390319B8290313B200C1
:1002F00003170D080313B30003170F080313B4000B
:100300003208B5005421330803178D000313340855
:1003100003178F0003130B08B5008B138316031705
:100320008C170C140000000083120313B51B8B17ED
:1003300003170C0D0E0D7F390319B8290313B200F2
:1003400003170D080313B30003170F080313B400BA
:100350003208B5005421330803178D000313340805
:1003600003178F008D0A03198F0A031364290317DB
:1003700003130800C0303207B300B400A1208A1173
:100380000A128E2A03081F398300A701A601A901BA
:10039000A80183161F149F141F159F1107309C007E
:1003A00083138312B12883161F109F101F159F11EE
:1003B0001F1383121F139F1383169F1783121F147B
:1003C0000830F8001F08C73978049F001F151F194F
:1003D000E72983161E088312A6001E08A700003016
:1003E000F8001F08C73978049F001F151F19F62948
:1003F00083161E088312A8001E08A9000830F80002
:100400001F08C73978049F000A30B20052201F1518
:100410001F19082A83161E088312A0001E08A100B7
:100420002108A3002008A2000221B2014C290430B7
:1004300003178D0000308F00031364213030300724
:10044000B2003108B3000318B30A3208B5005421D2
:1004500030302E07B2002F08B3000318B30A320859
:10046000B500542130302C07B2002D08B30003181A
:10047000B30A3208B500542130302A07B2002B08E5
:10048000B3000318B30A3208B50054210030F80055
:100490001F08C73978049F000A30B20052201F1588
:1004A0001F19502A83161E088312A0001E08A100DF
:1004B0002108A5002008A4000221063003178D00A2
:1004C00000308F000313642130303007B200310850
:1004D000B3000318B30A3208B500542130302E0798
:1004E000B2002F08B3000318B30A3208B500542134
:1004F00030302C07B2002D08B3000318B30A3208BD
:10050000B500542130302A07B2002B08B30003187D
:10051000B30A3208B5005421B201BA2928082402CE
:10052000031DA62A29082502031DA62A2608220241
:10053000031DA62A27082302031DA62A0930031734
:100540008D0000308F00031364216D2B26082202DA
:10055000031DD22A27082302031DD22A29082502B7
:10056000031CC02A031DB82A240828020318C02A25
:10057000113003178D0000308F0003136421D12A3E
:1005800025082902031CD12A031DCA2A280824028F
:100590000318D12A193003178D0000308F00031380
:1005A00064216D2B28082402031DFE2A2908250238
:1005B000031DFE2A27082302031CEC2A031DE42A3C
:1005C000220826020318EC2A203003178D00003081
:1005D0008F0003136421FD2A23082702031CFD2A30
:1005E000031DF62A260822020318FD2A27300317C6
:1005F0008D0000308F00031364216D2B2908250224
:10060000031C1A2B031D082B2408280203181A2B7D
:1006100027082302031C1A2B031D122B2208260273
:1006200003181A2B2E3003178D0000308F00031390
:1006300064216D2B25082902031C362B031D242B56
:10064000280824020318362B23082702031C362B04
:10065000031D2E2B260822020318362B37300317D2
:100660008D0000308F00031364216D2B29082502B3
:10067000031C522B031D402B240828020318522B65
:1006800023082702031C522B031D4A2B2608220293
:100690000318522B403003178D0000308F000313D6
:1006A00064216D2B25082902031C6D2B031D5C2B77
:1006B0002808240203186D2B27082302031C6D2B26
:1006C000031D662B2208260203186D2B49300317E1
:0E06D0008D0000308F0003136421FE296300AB
:02400E00723FFF
:00000001FF
;PIC16F877A
;CRC=8881  CREATED="29-Jul-21 21:01"
